{
  "address": "0x057ef64E23666F000b34aE31332854aCBd1c8544",
  "abi": [
    {
      "inputs": [
        {
          "internalType": "address",
          "name": "vrfCoordinatorV2",
          "type": "address"
        },
        {
          "internalType": "uint64",
          "name": "subscriptionId",
          "type": "uint64"
        },
        {
          "internalType": "bytes32",
          "name": "gasLane",
          "type": "bytes32"
        },
        {
          "internalType": "uint256",
          "name": "interval",
          "type": "uint256"
        },
        {
          "internalType": "uint256",
          "name": "entranceFee",
          "type": "uint256"
        },
        {
          "internalType": "uint32",
          "name": "callbackGasLimit",
          "type": "uint32"
        }
      ],
      "stateMutability": "nonpayable",
      "type": "constructor"
    },
    {
      "inputs": [],
      "name": "Lottery__LotteryNotOpen",
      "type": "error"
    },
    {
      "inputs": [],
      "name": "Lottery__SendMoreToEnterLottery",
      "type": "error"
    },
    {
      "inputs": [],
      "name": "Lottery__TransferFailed",
      "type": "error"
    },
    {
      "inputs": [
        {
          "internalType": "uint256",
          "name": "currentBalance",
          "type": "uint256"
        },
        {
          "internalType": "uint256",
          "name": "numPlayers",
          "type": "uint256"
        },
        {
          "internalType": "uint256",
          "name": "LotteryState",
          "type": "uint256"
        }
      ],
      "name": "Lottery__UpkeepNotNeeded",
      "type": "error"
    },
    {
      "inputs": [
        {
          "internalType": "address",
          "name": "have",
          "type": "address"
        },
        {
          "internalType": "address",
          "name": "want",
          "type": "address"
        }
      ],
      "name": "OnlyCoordinatorCanFulfill",
      "type": "error"
    },
    {
      "anonymous": false,
      "inputs": [
        {
          "indexed": true,
          "internalType": "address",
          "name": "player",
          "type": "address"
        }
      ],
      "name": "LotteryEnter",
      "type": "event"
    },
    {
      "anonymous": false,
      "inputs": [
        {
          "indexed": true,
          "internalType": "uint256",
          "name": "requestId",
          "type": "uint256"
        }
      ],
      "name": "RequestedLotteryWinner",
      "type": "event"
    },
    {
      "anonymous": false,
      "inputs": [
        {
          "indexed": true,
          "internalType": "address",
          "name": "player",
          "type": "address"
        }
      ],
      "name": "WinnerPicked",
      "type": "event"
    },
    {
      "inputs": [
        {
          "internalType": "bytes",
          "name": "",
          "type": "bytes"
        }
      ],
      "name": "checkUpkeep",
      "outputs": [
        {
          "internalType": "bool",
          "name": "upkeepNeeded",
          "type": "bool"
        },
        {
          "internalType": "bytes",
          "name": "",
          "type": "bytes"
        }
      ],
      "stateMutability": "view",
      "type": "function"
    },
    {
      "inputs": [],
      "name": "enterLottery",
      "outputs": [],
      "stateMutability": "payable",
      "type": "function"
    },
    {
      "inputs": [],
      "name": "fee",
      "outputs": [
        {
          "internalType": "uint256",
          "name": "",
          "type": "uint256"
        }
      ],
      "stateMutability": "view",
      "type": "function"
    },
    {
      "inputs": [],
      "name": "getBalance",
      "outputs": [
        {
          "internalType": "uint256",
          "name": "",
          "type": "uint256"
        }
      ],
      "stateMutability": "view",
      "type": "function"
    },
    {
      "inputs": [],
      "name": "getEntranceFee",
      "outputs": [
        {
          "internalType": "uint256",
          "name": "",
          "type": "uint256"
        }
      ],
      "stateMutability": "view",
      "type": "function"
    },
    {
      "inputs": [],
      "name": "getInterval",
      "outputs": [
        {
          "internalType": "uint256",
          "name": "",
          "type": "uint256"
        }
      ],
      "stateMutability": "view",
      "type": "function"
    },
    {
      "inputs": [],
      "name": "getLastTimeStamp",
      "outputs": [
        {
          "internalType": "uint256",
          "name": "",
          "type": "uint256"
        }
      ],
      "stateMutability": "view",
      "type": "function"
    },
    {
      "inputs": [],
      "name": "getLotteryState",
      "outputs": [
        {
          "internalType": "enum Lottery.LotteryState",
          "name": "",
          "type": "uint8"
        }
      ],
      "stateMutability": "view",
      "type": "function"
    },
    {
      "inputs": [],
      "name": "getNumWords",
      "outputs": [
        {
          "internalType": "uint256",
          "name": "",
          "type": "uint256"
        }
      ],
      "stateMutability": "pure",
      "type": "function"
    },
    {
      "inputs": [],
      "name": "getNumberOfPlayers",
      "outputs": [
        {
          "internalType": "uint256",
          "name": "",
          "type": "uint256"
        }
      ],
      "stateMutability": "view",
      "type": "function"
    },
    {
      "inputs": [
        {
          "internalType": "uint256",
          "name": "index",
          "type": "uint256"
        }
      ],
      "name": "getPlayer",
      "outputs": [
        {
          "internalType": "address",
          "name": "",
          "type": "address"
        }
      ],
      "stateMutability": "view",
      "type": "function"
    },
    {
      "inputs": [
        {
          "internalType": "int256",
          "name": "eth",
          "type": "int256"
        }
      ],
      "name": "getPrice",
      "outputs": [
        {
          "internalType": "int256",
          "name": "",
          "type": "int256"
        }
      ],
      "stateMutability": "view",
      "type": "function"
    },
    {
      "inputs": [],
      "name": "getRate",
      "outputs": [
        {
          "internalType": "int256",
          "name": "",
          "type": "int256"
        }
      ],
      "stateMutability": "view",
      "type": "function"
    },
    {
      "inputs": [],
      "name": "getRecentWinner",
      "outputs": [
        {
          "internalType": "address",
          "name": "",
          "type": "address"
        }
      ],
      "stateMutability": "view",
      "type": "function"
    },
    {
      "inputs": [],
      "name": "getRequestConfirmations",
      "outputs": [
        {
          "internalType": "uint256",
          "name": "",
          "type": "uint256"
        }
      ],
      "stateMutability": "pure",
      "type": "function"
    },
    {
      "inputs": [],
      "name": "getVersion",
      "outputs": [
        {
          "internalType": "uint256",
          "name": "",
          "type": "uint256"
        }
      ],
      "stateMutability": "view",
      "type": "function"
    },
    {
      "inputs": [
        {
          "internalType": "bytes",
          "name": "",
          "type": "bytes"
        }
      ],
      "name": "performUpkeep",
      "outputs": [],
      "stateMutability": "nonpayable",
      "type": "function"
    },
    {
      "inputs": [
        {
          "internalType": "uint256",
          "name": "requestId",
          "type": "uint256"
        },
        {
          "internalType": "uint256[]",
          "name": "randomWords",
          "type": "uint256[]"
        }
      ],
      "name": "rawFulfillRandomWords",
      "outputs": [],
      "stateMutability": "nonpayable",
      "type": "function"
    },
    {
      "inputs": [
        {
          "internalType": "uint256",
          "name": "f",
          "type": "uint256"
        }
      ],
      "name": "sFee",
      "outputs": [],
      "stateMutability": "nonpayable",
      "type": "function"
    }
  ],
  "transactionHash": "0x1cd5115cfd4602ae32a262eed6483d7ee435082fe8563c65105b45b8a76acb38",
  "args": [
    "0x8464135c8F25Da09e49BC8782676a84730C318bC",
    "1",
    "0x474e34a077df58807dbe9c96d3c009b23b3c6d0cce433e59bbf5b34f823bc56c",
    "3",
    "10000000000000000",
    "5000000"
  ],
  "numDeployments": 1,
  "solcInputHash": "5360e3434fcff70e9cbb64b6b9cd939b",
  "bytecode": "0x61016060405260016000553480156200001757600080fd5b5060405162001e4d38038062001e4d83398181016040528101906200003d9190620001b9565b858073ffffffffffffffffffffffffffffffffffffffff1660808173ffffffffffffffffffffffffffffffffffffffff1660601b81525050508573ffffffffffffffffffffffffffffffffffffffff1660a08173ffffffffffffffffffffffffffffffffffffffff1660601b815250508360e081815250508261012081815250508467ffffffffffffffff1660c08167ffffffffffffffff1660c01b815250508161014081815250506000600460006101000a81548160ff021916908360018111156200010f576200010e620002c1565b5b0217905550426001819055508063ffffffff166101008163ffffffff1660e01b815250508160058190555050505050505062000377565b6000815190506200015781620002f5565b92915050565b6000815190506200016e816200030f565b92915050565b600081519050620001858162000329565b92915050565b6000815190506200019c8162000343565b92915050565b600081519050620001b3816200035d565b92915050565b60008060008060008060c08789031215620001d957620001d8620002f0565b5b6000620001e989828a0162000146565b9650506020620001fc89828a01620001a2565b95505060406200020f89828a016200015d565b94505060606200022289828a0162000174565b93505060806200023589828a0162000174565b92505060a06200024889828a016200018b565b9150509295509295509295565b6000620002628262000273565b9050919050565b6000819050919050565b600073ffffffffffffffffffffffffffffffffffffffff82169050919050565b6000819050919050565b600063ffffffff82169050919050565b600067ffffffffffffffff82169050919050565b7f4e487b7100000000000000000000000000000000000000000000000000000000600052602160045260246000fd5b600080fd5b620003008162000255565b81146200030c57600080fd5b50565b6200031a8162000269565b81146200032657600080fd5b50565b620003348162000293565b81146200034057600080fd5b50565b6200034e816200029d565b81146200035a57600080fd5b50565b6200036881620002ad565b81146200037457600080fd5b50565b60805160601c60a05160601c60c05160c01c60e0516101005160e01c6101205161014051611a61620003ec60003960006109f201526000818161092201526109cc01526000610702015260006106be015260006106df0152600061068201526000818161050c01526105600152611a616000f3fe6080604052600436106101145760003560e01c80636b68c03c116100a0578063d911173811610064578063d911173814610361578063dade2c1c1461039e578063ddca3f43146103c7578063e55ae4e8146103f2578063fd6673f51461042f57610114565b80636b68c03c146102985780636e04ff0d146102c357806391ad27b414610301578063c1af57851461032c578063c1c244e81461033657610114565b80634585e33b116100e75780634585e33b146101c3578063473f1ddc146101ec57806353a2c19a146102175780635f1b0fd814610242578063679aefce1461026d57610114565b806309bc33a7146101195780630d8e6e2c1461014457806312065fe01461016f5780631fe543e31461019a575b600080fd5b34801561012557600080fd5b5061012e61045a565b60405161013b9190611498565b60405180910390f35b34801561015057600080fd5b50610159610464565b6040516101669190611498565b60405180910390f35b34801561017b57600080fd5b50610184610502565b6040516101919190611498565b60405180910390f35b3480156101a657600080fd5b506101c160048036038101906101bc91906111cc565b61050a565b005b3480156101cf57600080fd5b506101ea60048036038101906101e591906110af565b6105ca565b005b3480156101f857600080fd5b506102016107ca565b60405161020e919061139b565b60405180910390f35b34801561022357600080fd5b5061022c6107f4565b6040516102399190611498565b60405180910390f35b34801561024e57600080fd5b50610257610803565b6040516102649190611498565b60405180910390f35b34801561027957600080fd5b50610282610810565b60405161028f919061147d565b60405180910390f35b3480156102a457600080fd5b506102ad6108c8565b6040516102ba9190611462565b60405180910390f35b3480156102cf57600080fd5b506102ea60048036038101906102e591906110fc565b6108df565b6040516102f89291906113df565b60405180910390f35b34801561030d57600080fd5b506103166109c8565b6040516103239190611498565b60405180910390f35b6103346109f0565b005b34801561034257600080fd5b5061034b610b5f565b6040516103589190611498565b60405180910390f35b34801561036d57600080fd5b5061038860048036038101906103839190611145565b610b69565b604051610395919061147d565b60405180910390f35b3480156103aa57600080fd5b506103c560048036038101906103c09190611172565b610ba3565b005b3480156103d357600080fd5b506103dc610bad565b6040516103e99190611498565b60405180910390f35b3480156103fe57600080fd5b5061041960048036038101906104149190611172565b610bb3565b604051610426919061139b565b60405180910390f35b34801561043b57600080fd5b50610444610bfb565b6040516104519190611498565b60405180910390f35b6000600554905090565b60008073694aa1769357215de4fac081bf1f309adc32530690508073ffffffffffffffffffffffffffffffffffffffff166354fd4d506040518163ffffffff1660e01b815260040160206040518083038186803b1580156104c457600080fd5b505afa1580156104d8573d6000803e3d6000fd5b505050506040513d601f19601f820116820180604052508101906104fc919061119f565b91505090565b600047905090565b7f000000000000000000000000000000000000000000000000000000000000000073ffffffffffffffffffffffffffffffffffffffff163373ffffffffffffffffffffffffffffffffffffffff16146105bc57337f00000000000000000000000000000000000000000000000000000000000000006040517f1cf993f40000000000000000000000000000000000000000000000000000000081526004016105b39291906113b6565b60405180910390fd5b6105c68282610c08565b5050565b60006105e4604051806020016040528060008152506108df565b509050806106535747600380549050600460009054906101000a900460ff16600181111561061557610614611913565b5b6040517f6e195f2500000000000000000000000000000000000000000000000000000000815260040161064a939291906114b3565b60405180910390fd5b6001600460006101000a81548160ff0219169083600181111561067957610678611913565b5b021790555060007f000000000000000000000000000000000000000000000000000000000000000073ffffffffffffffffffffffffffffffffffffffff16635d3b1d307f00000000000000000000000000000000000000000000000000000000000000007f000000000000000000000000000000000000000000000000000000000000000060037f000000000000000000000000000000000000000000000000000000000000000060016040518663ffffffff1660e01b815260040161074395949392919061140f565b602060405180830381600087803b15801561075d57600080fd5b505af1158015610771573d6000803e3d6000fd5b505050506040513d601f19601f82011682018060405250810190610795919061119f565b9050807febf56642252004c18a776f30d528e7a0ce8c5db14b6596fb6550f630c8a24c6c60405160405180910390a250505050565b6000600260009054906101000a900473ffffffffffffffffffffffffffffffffffffffff16905090565b6000600163ffffffff16905090565b6000600361ffff16905090565b60008073694aa1769357215de4fac081bf1f309adc325306905060008173ffffffffffffffffffffffffffffffffffffffff1663feaf968c6040518163ffffffff1660e01b815260040160a06040518083038186803b15801561087257600080fd5b505afa158015610886573d6000803e3d6000fd5b505050506040513d601f19601f820116820180604052508101906108aa9190611228565b5050509150506402540be400816108c191906115fd565b9250505090565b6000600460009054906101000a900460ff16905090565b600060606000600460009054906101000a900460ff16600181111561090757610906611913565b5b6000600181111561091b5761091a611913565b5b14905060007f00000000000000000000000000000000000000000000000000000000000000006001544261094f9190611714565b11905060006001600380549050119050600080471190508280156109705750835b80156109795750805b80156109825750815b9550856040518060400160405280600381526020017f30783000000000000000000000000000000000000000000000000000000000008152509550955050505050915091565b60007f0000000000000000000000000000000000000000000000000000000000000000905090565b7f0000000000000000000000000000000000000000000000000000000000000000341015610a4a576040517fa4078c2400000000000000000000000000000000000000000000000000000000815260040160405180910390fd5b60006001811115610a5e57610a5d611913565b5b600460009054906101000a900460ff166001811115610a8057610a7f611913565b5b14610ab7576040517f823ea8bb00000000000000000000000000000000000000000000000000000000815260040160405180910390fd5b6003339080600181540180825580915050600190039060005260206000200160009091909190916101000a81548173ffffffffffffffffffffffffffffffffffffffff021916908373ffffffffffffffffffffffffffffffffffffffff1602179055503373ffffffffffffffffffffffffffffffffffffffff167f1d64fb5ba9f2548c5b98468d58f25b87b9e866afee0122e92d9fe722bf85076c60405160405180910390a2565b6000600154905090565b600080610b74610810565b90506000670de0b6b3a76400008285610b8d91906115fd565b610b979190611593565b90508092505050919050565b8060058190555050565b60055481565b600060038281548110610bc957610bc8611942565b5b9060005260206000200160009054906101000a900473ffffffffffffffffffffffffffffffffffffffff169050919050565b6000600380549050905090565b600060038054905082600081518110610c2457610c23611942565b5b6020026020010151610c369190611884565b9050600060038281548110610c4e57610c4d611942565b5b9060005260206000200160009054906101000a900473ffffffffffffffffffffffffffffffffffffffff16905080600260006101000a81548173ffffffffffffffffffffffffffffffffffffffff021916908373ffffffffffffffffffffffffffffffffffffffff160217905550600067ffffffffffffffff811115610cd757610cd6611971565b5b604051908082528060200260200182016040528015610d055781602001602082028036833780820191505090505b5060039080519060200190610d1b929190610e3b565b506000600460006101000a81548160ff02191690836001811115610d4257610d41611913565b5b02179055504260018190555060008173ffffffffffffffffffffffffffffffffffffffff1647604051610d7490611386565b60006040518083038185875af1925050503d8060008114610db1576040519150601f19603f3d011682016040523d82523d6000602084013e610db6565b606091505b5050905080610df1576040517f1c94012000000000000000000000000000000000000000000000000000000000815260040160405180910390fd5b8173ffffffffffffffffffffffffffffffffffffffff167f5b690ec4a06fe979403046eaeea5b3ce38524683c3001f662c8b5a829632f7df60405160405180910390a25050505050565b828054828255906000526020600020908101928215610eb4579160200282015b82811115610eb35782518260006101000a81548173ffffffffffffffffffffffffffffffffffffffff021916908373ffffffffffffffffffffffffffffffffffffffff16021790555091602001919060010190610e5b565b5b509050610ec19190610ec5565b5090565b5b80821115610ede576000816000905550600101610ec6565b5090565b6000610ef5610ef08461150f565b6114ea565b90508083825260208201905082856020860282011115610f1857610f176119aa565b5b60005b85811015610f485781610f2e8882611070565b845260208401935060208301925050600181019050610f1b565b5050509392505050565b6000610f65610f608461153b565b6114ea565b905082815260208101848484011115610f8157610f806119af565b5b610f8c848285611811565b509392505050565b600082601f830112610fa957610fa86119a5565b5b8135610fb9848260208601610ee2565b91505092915050565b60008083601f840112610fd857610fd76119a5565b5b8235905067ffffffffffffffff811115610ff557610ff46119a0565b5b602083019150836001820283011115611011576110106119aa565b5b9250929050565b600082601f83011261102d5761102c6119a5565b5b813561103d848260208601610f52565b91505092915050565b600081359050611055816119e6565b92915050565b60008151905061106a816119e6565b92915050565b60008135905061107f816119fd565b92915050565b600081519050611094816119fd565b92915050565b6000815190506110a981611a14565b92915050565b600080602083850312156110c6576110c56119b9565b5b600083013567ffffffffffffffff8111156110e4576110e36119b4565b5b6110f085828601610fc2565b92509250509250929050565b600060208284031215611112576111116119b9565b5b600082013567ffffffffffffffff8111156111305761112f6119b4565b5b61113c84828501611018565b91505092915050565b60006020828403121561115b5761115a6119b9565b5b600061116984828501611046565b91505092915050565b600060208284031215611188576111876119b9565b5b600061119684828501611070565b91505092915050565b6000602082840312156111b5576111b46119b9565b5b60006111c384828501611085565b91505092915050565b600080604083850312156111e3576111e26119b9565b5b60006111f185828601611070565b925050602083013567ffffffffffffffff811115611212576112116119b4565b5b61121e85828601610f94565b9150509250929050565b600080600080600060a08688031215611244576112436119b9565b5b60006112528882890161109a565b95505060206112638882890161105b565b945050604061127488828901611085565b935050606061128588828901611085565b92505060806112968882890161109a565b9150509295509295909350565b6112ac81611748565b82525050565b6112bb8161175a565b82525050565b6112ca81611766565b82525050565b60006112db8261156c565b6112e58185611577565b93506112f5818560208601611820565b6112fe816119be565b840191505092915050565b611312816117ff565b82525050565b61132181611783565b82525050565b6000611334600083611588565b915061133f826119cf565b600082019050919050565b6113538161178d565b82525050565b611362816117bb565b82525050565b611371816117c5565b82525050565b611380816117d5565b82525050565b600061139182611327565b9150819050919050565b60006020820190506113b060008301846112a3565b92915050565b60006040820190506113cb60008301856112a3565b6113d860208301846112a3565b9392505050565b60006040820190506113f460008301856112b2565b818103602083015261140681846112d0565b90509392505050565b600060a08201905061142460008301886112c1565b6114316020830187611377565b61143e604083018661134a565b61144b6060830185611368565b6114586080830184611368565b9695505050505050565b60006020820190506114776000830184611309565b92915050565b60006020820190506114926000830184611318565b92915050565b60006020820190506114ad6000830184611359565b92915050565b60006060820190506114c86000830186611359565b6114d56020830185611359565b6114e26040830184611359565b949350505050565b60006114f4611505565b90506115008282611853565b919050565b6000604051905090565b600067ffffffffffffffff82111561152a57611529611971565b5b602082029050602081019050919050565b600067ffffffffffffffff82111561155657611555611971565b5b61155f826119be565b9050602081019050919050565b600081519050919050565b600082825260208201905092915050565b600081905092915050565b600061159e82611783565b91506115a983611783565b9250826115b9576115b86118e4565b5b600160000383147f8000000000000000000000000000000000000000000000000000000000000000831416156115f2576115f16118b5565b5b828205905092915050565b600061160882611783565b915061161383611783565b9250827f7fffffffffffffffffffffffffffffffffffffffffffffffffffffffffffffff0482116000841360008413161615611652576116516118b5565b5b817f8000000000000000000000000000000000000000000000000000000000000000058312600084126000841316161561168f5761168e6118b5565b5b827f800000000000000000000000000000000000000000000000000000000000000005821260008413600084121616156116cc576116cb6118b5565b5b827f7fffffffffffffffffffffffffffffffffffffffffffffffffffffffffffffff0582126000841260008412161615611709576117086118b5565b5b828202905092915050565b600061171f826117bb565b915061172a836117bb565b92508282101561173d5761173c6118b5565b5b828203905092915050565b60006117538261179b565b9050919050565b60008115159050919050565b6000819050919050565b600081905061177e826119d2565b919050565b6000819050919050565b600061ffff82169050919050565b600073ffffffffffffffffffffffffffffffffffffffff82169050919050565b6000819050919050565b600063ffffffff82169050919050565b600067ffffffffffffffff82169050919050565b600069ffffffffffffffffffff82169050919050565b600061180a82611770565b9050919050565b82818337600083830152505050565b60005b8381101561183e578082015181840152602081019050611823565b8381111561184d576000848401525b50505050565b61185c826119be565b810181811067ffffffffffffffff8211171561187b5761187a611971565b5b80604052505050565b600061188f826117bb565b915061189a836117bb565b9250826118aa576118a96118e4565b5b828206905092915050565b7f4e487b7100000000000000000000000000000000000000000000000000000000600052601160045260246000fd5b7f4e487b7100000000000000000000000000000000000000000000000000000000600052601260045260246000fd5b7f4e487b7100000000000000000000000000000000000000000000000000000000600052602160045260246000fd5b7f4e487b7100000000000000000000000000000000000000000000000000000000600052603260045260246000fd5b7f4e487b7100000000000000000000000000000000000000000000000000000000600052604160045260246000fd5b600080fd5b600080fd5b600080fd5b600080fd5b600080fd5b600080fd5b6000601f19601f8301169050919050565b50565b600281106119e3576119e2611913565b5b50565b6119ef81611783565b81146119fa57600080fd5b50565b611a06816117bb565b8114611a1157600080fd5b50565b611a1d816117e9565b8114611a2857600080fd5b5056fea26469706673582212205bf091fc03e1b4ed6c6a291040ca445da4da5d0074ad2526b6c508773a576c6764736f6c63430008070033",
  "devdoc": {
    "kind": "dev",
    "methods": {},
    "version": 1
  },
  "userdoc": {
    "kind": "user",
    "methods": {},
    "version": 1
  },
  "storageLayout": {
    "storage": [
      {
        "astId": 324,
        "contract": "contracts/Lottery.sol:Lottery",
        "label": "minimumUSD",
        "offset": 0,
        "slot": "0",
        "type": "t_uint256"
      },
      {
        "astId": 348,
        "contract": "contracts/Lottery.sol:Lottery",
        "label": "s_lastTimeStamp",
        "offset": 0,
        "slot": "1",
        "type": "t_uint256"
      },
      {
        "astId": 350,
        "contract": "contracts/Lottery.sol:Lottery",
        "label": "s_recentWinner",
        "offset": 0,
        "slot": "2",
        "type": "t_address"
      },
      {
        "astId": 353,
        "contract": "contracts/Lottery.sol:Lottery",
        "label": "s_players",
        "offset": 0,
        "slot": "3",
        "type": "t_array(t_address_payable)dyn_storage"
      },
      {
        "astId": 356,
        "contract": "contracts/Lottery.sol:Lottery",
        "label": "s_LotteryState",
        "offset": 0,
        "slot": "4",
        "type": "t_enum(LotteryState)327"
      },
      {
        "astId": 358,
        "contract": "contracts/Lottery.sol:Lottery",
        "label": "fee",
        "offset": 0,
        "slot": "5",
        "type": "t_uint256"
      }
    ],
    "types": {
      "t_address": {
        "encoding": "inplace",
        "label": "address",
        "numberOfBytes": "20"
      },
      "t_address_payable": {
        "encoding": "inplace",
        "label": "address payable",
        "numberOfBytes": "20"
      },
      "t_array(t_address_payable)dyn_storage": {
        "base": "t_address_payable",
        "encoding": "dynamic_array",
        "label": "address payable[]",
        "numberOfBytes": "32"
      },
      "t_enum(LotteryState)327": {
        "encoding": "inplace",
        "label": "enum Lottery.LotteryState",
        "numberOfBytes": "1"
      },
      "t_uint256": {
        "encoding": "inplace",
        "label": "uint256",
        "numberOfBytes": "32"
      }
    }
  }
}