{
  "address": "0x6D267C848F009BDcef7d2530bb0D3Ee1263906a1",
  "abi": [
    {
      "inputs": [
        {
          "internalType": "address",
          "name": "vrfCoordinatorV2",
          "type": "address"
        },
        {
          "internalType": "uint64",
          "name": "subscriptionId",
          "type": "uint64"
        },
        {
          "internalType": "bytes32",
          "name": "gasLane",
          "type": "bytes32"
        },
        {
          "internalType": "uint256",
          "name": "interval",
          "type": "uint256"
        },
        {
          "internalType": "uint256",
          "name": "entranceFee",
          "type": "uint256"
        },
        {
          "internalType": "uint32",
          "name": "callbackGasLimit",
          "type": "uint32"
        }
      ],
      "stateMutability": "nonpayable",
      "type": "constructor"
    },
    {
      "inputs": [],
      "name": "Lottery__LotteryNotOpen",
      "type": "error"
    },
    {
      "inputs": [],
      "name": "Lottery__SendMoreToEnterLottery",
      "type": "error"
    },
    {
      "inputs": [],
      "name": "Lottery__TransferFailed",
      "type": "error"
    },
    {
      "inputs": [
        {
          "internalType": "uint256",
          "name": "currentBalance",
          "type": "uint256"
        },
        {
          "internalType": "uint256",
          "name": "numPlayers",
          "type": "uint256"
        },
        {
          "internalType": "uint256",
          "name": "LotteryState",
          "type": "uint256"
        }
      ],
      "name": "Lottery__UpkeepNotNeeded",
      "type": "error"
    },
    {
      "inputs": [
        {
          "internalType": "address",
          "name": "have",
          "type": "address"
        },
        {
          "internalType": "address",
          "name": "want",
          "type": "address"
        }
      ],
      "name": "OnlyCoordinatorCanFulfill",
      "type": "error"
    },
    {
      "anonymous": false,
      "inputs": [
        {
          "indexed": true,
          "internalType": "address",
          "name": "player",
          "type": "address"
        }
      ],
      "name": "LotteryEnter",
      "type": "event"
    },
    {
      "anonymous": false,
      "inputs": [
        {
          "indexed": true,
          "internalType": "uint256",
          "name": "requestId",
          "type": "uint256"
        }
      ],
      "name": "RequestedLotteryWinner",
      "type": "event"
    },
    {
      "anonymous": false,
      "inputs": [
        {
          "indexed": true,
          "internalType": "address",
          "name": "player",
          "type": "address"
        }
      ],
      "name": "WinnerPicked",
      "type": "event"
    },
    {
      "inputs": [
        {
          "internalType": "bytes",
          "name": "",
          "type": "bytes"
        }
      ],
      "name": "checkUpkeep",
      "outputs": [
        {
          "internalType": "bool",
          "name": "upkeepNeeded",
          "type": "bool"
        },
        {
          "internalType": "bytes",
          "name": "",
          "type": "bytes"
        }
      ],
      "stateMutability": "view",
      "type": "function"
    },
    {
      "inputs": [],
      "name": "enterLottery",
      "outputs": [],
      "stateMutability": "payable",
      "type": "function"
    },
    {
      "inputs": [],
      "name": "getBalance",
      "outputs": [
        {
          "internalType": "uint256",
          "name": "",
          "type": "uint256"
        }
      ],
      "stateMutability": "view",
      "type": "function"
    },
    {
      "inputs": [],
      "name": "getEntranceFee",
      "outputs": [
        {
          "internalType": "uint256",
          "name": "",
          "type": "uint256"
        }
      ],
      "stateMutability": "view",
      "type": "function"
    },
    {
      "inputs": [],
      "name": "getInterval",
      "outputs": [
        {
          "internalType": "uint256",
          "name": "",
          "type": "uint256"
        }
      ],
      "stateMutability": "view",
      "type": "function"
    },
    {
      "inputs": [],
      "name": "getLastTimeStamp",
      "outputs": [
        {
          "internalType": "uint256",
          "name": "",
          "type": "uint256"
        }
      ],
      "stateMutability": "view",
      "type": "function"
    },
    {
      "inputs": [],
      "name": "getLotteryState",
      "outputs": [
        {
          "internalType": "enum Lottery.LotteryState",
          "name": "",
          "type": "uint8"
        }
      ],
      "stateMutability": "view",
      "type": "function"
    },
    {
      "inputs": [],
      "name": "getNumWords",
      "outputs": [
        {
          "internalType": "uint256",
          "name": "",
          "type": "uint256"
        }
      ],
      "stateMutability": "pure",
      "type": "function"
    },
    {
      "inputs": [],
      "name": "getNumberOfPlayers",
      "outputs": [
        {
          "internalType": "uint256",
          "name": "",
          "type": "uint256"
        }
      ],
      "stateMutability": "view",
      "type": "function"
    },
    {
      "inputs": [
        {
          "internalType": "uint256",
          "name": "index",
          "type": "uint256"
        }
      ],
      "name": "getPlayer",
      "outputs": [
        {
          "internalType": "address",
          "name": "",
          "type": "address"
        }
      ],
      "stateMutability": "view",
      "type": "function"
    },
    {
      "inputs": [
        {
          "internalType": "int256",
          "name": "eth",
          "type": "int256"
        }
      ],
      "name": "getPrice",
      "outputs": [
        {
          "internalType": "int256",
          "name": "",
          "type": "int256"
        }
      ],
      "stateMutability": "view",
      "type": "function"
    },
    {
      "inputs": [],
      "name": "getRate",
      "outputs": [
        {
          "internalType": "int256",
          "name": "",
          "type": "int256"
        }
      ],
      "stateMutability": "view",
      "type": "function"
    },
    {
      "inputs": [],
      "name": "getRecentWinner",
      "outputs": [
        {
          "internalType": "address",
          "name": "",
          "type": "address"
        }
      ],
      "stateMutability": "view",
      "type": "function"
    },
    {
      "inputs": [],
      "name": "getRequestConfirmations",
      "outputs": [
        {
          "internalType": "uint256",
          "name": "",
          "type": "uint256"
        }
      ],
      "stateMutability": "pure",
      "type": "function"
    },
    {
      "inputs": [],
      "name": "getVersion",
      "outputs": [
        {
          "internalType": "uint256",
          "name": "",
          "type": "uint256"
        }
      ],
      "stateMutability": "view",
      "type": "function"
    },
    {
      "inputs": [
        {
          "internalType": "bytes",
          "name": "",
          "type": "bytes"
        }
      ],
      "name": "performUpkeep",
      "outputs": [],
      "stateMutability": "nonpayable",
      "type": "function"
    },
    {
      "inputs": [
        {
          "internalType": "uint256",
          "name": "requestId",
          "type": "uint256"
        },
        {
          "internalType": "uint256[]",
          "name": "randomWords",
          "type": "uint256[]"
        }
      ],
      "name": "rawFulfillRandomWords",
      "outputs": [],
      "stateMutability": "nonpayable",
      "type": "function"
    }
  ],
  "transactionHash": "0xf7e262002838ada58145b7eb4f0affa178af0d3b024796d6a7d3723e6c0b4d01",
  "args": [
    "0x8103B0A8A00be2DDC778e6e7eaa21791Cd364625",
    "11062",
    "0x474e34a077df58807dbe9c96d3c009b23b3c6d0cce433e59bbf5b34f823bc56c",
    "3",
    "327620000000000",
    "5000000"
  ],
  "numDeployments": 8,
  "solcInputHash": "e70e7245959a3cf2c02e285a9060608e",
  "bytecode": "0x61016060405260016000553480156200001757600080fd5b5060405162001df138038062001df183398181016040528101906200003d9190620001b2565b858073ffffffffffffffffffffffffffffffffffffffff1660808173ffffffffffffffffffffffffffffffffffffffff1660601b81525050508573ffffffffffffffffffffffffffffffffffffffff1660a08173ffffffffffffffffffffffffffffffffffffffff1660601b815250508360e081815250508261012081815250508467ffffffffffffffff1660c08167ffffffffffffffff1660c01b815250508161014081815250506000600460006101000a81548160ff021916908360018111156200010f576200010e620002ba565b5b0217905550426001819055508063ffffffff166101008163ffffffff1660e01b8152505050505050505062000370565b6000815190506200015081620002ee565b92915050565b600081519050620001678162000308565b92915050565b6000815190506200017e8162000322565b92915050565b60008151905062000195816200033c565b92915050565b600081519050620001ac8162000356565b92915050565b60008060008060008060c08789031215620001d257620001d1620002e9565b5b6000620001e289828a016200013f565b9650506020620001f589828a016200019b565b95505060406200020889828a0162000156565b94505060606200021b89828a016200016d565b93505060806200022e89828a016200016d565b92505060a06200024189828a0162000184565b9150509295509295509295565b60006200025b826200026c565b9050919050565b6000819050919050565b600073ffffffffffffffffffffffffffffffffffffffff82169050919050565b6000819050919050565b600063ffffffff82169050919050565b600067ffffffffffffffff82169050919050565b7f4e487b7100000000000000000000000000000000000000000000000000000000600052602160045260246000fd5b600080fd5b620002f9816200024e565b81146200030557600080fd5b50565b620003138162000262565b81146200031f57600080fd5b50565b6200032d816200028c565b81146200033957600080fd5b50565b620003478162000296565b81146200035357600080fd5b50565b6200036181620002a6565b81146200036d57600080fd5b50565b60805160601c60a05160601c60c05160c01c60e0516101005160e01c6101205161014051611a05620003ec600039600081816103f401526109a60152600081816108d60152610980015260006106b60152600061067201526000610693015260006106360152600081816104c001526105140152611a056000f3fe6080604052600436106100fe5760003560e01c8063679aefce11610095578063c1af578511610064578063c1af578514610316578063c1c244e814610320578063d91117381461034b578063e55ae4e814610388578063fd6673f5146103c5576100fe565b8063679aefce146102575780636b68c03c146102825780636e04ff0d146102ad57806391ad27b4146102eb576100fe565b80634585e33b116100d15780634585e33b146101ad578063473f1ddc146101d657806353a2c19a146102015780635f1b0fd81461022c576100fe565b806309bc33a7146101035780630d8e6e2c1461012e57806312065fe0146101595780631fe543e314610184575b600080fd5b34801561010f57600080fd5b506101186103f0565b604051610125919061143c565b60405180910390f35b34801561013a57600080fd5b50610143610418565b604051610150919061143c565b60405180910390f35b34801561016557600080fd5b5061016e6104b6565b60405161017b919061143c565b60405180910390f35b34801561019057600080fd5b506101ab60048036038101906101a69190611170565b6104be565b005b3480156101b957600080fd5b506101d460048036038101906101cf9190611053565b61057e565b005b3480156101e257600080fd5b506101eb61077e565b6040516101f8919061133f565b60405180910390f35b34801561020d57600080fd5b506102166107a8565b604051610223919061143c565b60405180910390f35b34801561023857600080fd5b506102416107b7565b60405161024e919061143c565b60405180910390f35b34801561026357600080fd5b5061026c6107c4565b6040516102799190611421565b60405180910390f35b34801561028e57600080fd5b5061029761087c565b6040516102a49190611406565b60405180910390f35b3480156102b957600080fd5b506102d460048036038101906102cf91906110a0565b610893565b6040516102e2929190611383565b60405180910390f35b3480156102f757600080fd5b5061030061097c565b60405161030d919061143c565b60405180910390f35b61031e6109a4565b005b34801561032c57600080fd5b50610335610b13565b604051610342919061143c565b60405180910390f35b34801561035757600080fd5b50610372600480360381019061036d91906110e9565b610b1d565b60405161037f9190611421565b60405180910390f35b34801561039457600080fd5b506103af60048036038101906103aa9190611116565b610b57565b6040516103bc919061133f565b60405180910390f35b3480156103d157600080fd5b506103da610b9f565b6040516103e7919061143c565b60405180910390f35b60007f0000000000000000000000000000000000000000000000000000000000000000905090565b60008073694aa1769357215de4fac081bf1f309adc32530690508073ffffffffffffffffffffffffffffffffffffffff166354fd4d506040518163ffffffff1660e01b815260040160206040518083038186803b15801561047857600080fd5b505afa15801561048c573d6000803e3d6000fd5b505050506040513d601f19601f820116820180604052508101906104b09190611143565b91505090565b600047905090565b7f000000000000000000000000000000000000000000000000000000000000000073ffffffffffffffffffffffffffffffffffffffff163373ffffffffffffffffffffffffffffffffffffffff161461057057337f00000000000000000000000000000000000000000000000000000000000000006040517f1cf993f400000000000000000000000000000000000000000000000000000000815260040161056792919061135a565b60405180910390fd5b61057a8282610bac565b5050565b600061059860405180602001604052806000815250610893565b509050806106075747600380549050600460009054906101000a900460ff1660018111156105c9576105c86118b7565b5b6040517f6e195f250000000000000000000000000000000000000000000000000000000081526004016105fe93929190611457565b60405180910390fd5b6001600460006101000a81548160ff0219169083600181111561062d5761062c6118b7565b5b021790555060007f000000000000000000000000000000000000000000000000000000000000000073ffffffffffffffffffffffffffffffffffffffff16635d3b1d307f00000000000000000000000000000000000000000000000000000000000000007f000000000000000000000000000000000000000000000000000000000000000060037f000000000000000000000000000000000000000000000000000000000000000060016040518663ffffffff1660e01b81526004016106f79594939291906113b3565b602060405180830381600087803b15801561071157600080fd5b505af1158015610725573d6000803e3d6000fd5b505050506040513d601f19601f820116820180604052508101906107499190611143565b9050807febf56642252004c18a776f30d528e7a0ce8c5db14b6596fb6550f630c8a24c6c60405160405180910390a250505050565b6000600260009054906101000a900473ffffffffffffffffffffffffffffffffffffffff16905090565b6000600163ffffffff16905090565b6000600361ffff16905090565b60008073694aa1769357215de4fac081bf1f309adc325306905060008173ffffffffffffffffffffffffffffffffffffffff1663feaf968c6040518163ffffffff1660e01b815260040160a06040518083038186803b15801561082657600080fd5b505afa15801561083a573d6000803e3d6000fd5b505050506040513d601f19601f8201168201806040525081019061085e91906111cc565b5050509150506402540be4008161087591906115a1565b9250505090565b6000600460009054906101000a900460ff16905090565b600060606000600460009054906101000a900460ff1660018111156108bb576108ba6118b7565b5b600060018111156108cf576108ce6118b7565b5b14905060007f00000000000000000000000000000000000000000000000000000000000000006001544261090391906116b8565b11905060006001600380549050119050600080471190508280156109245750835b801561092d5750805b80156109365750815b9550856040518060400160405280600381526020017f30783000000000000000000000000000000000000000000000000000000000008152509550955050505050915091565b60007f0000000000000000000000000000000000000000000000000000000000000000905090565b7f00000000000000000000000000000000000000000000000000000000000000003410156109fe576040517fa4078c2400000000000000000000000000000000000000000000000000000000815260040160405180910390fd5b60006001811115610a1257610a116118b7565b5b600460009054906101000a900460ff166001811115610a3457610a336118b7565b5b14610a6b576040517f823ea8bb00000000000000000000000000000000000000000000000000000000815260040160405180910390fd5b6003339080600181540180825580915050600190039060005260206000200160009091909190916101000a81548173ffffffffffffffffffffffffffffffffffffffff021916908373ffffffffffffffffffffffffffffffffffffffff1602179055503373ffffffffffffffffffffffffffffffffffffffff167f1d64fb5ba9f2548c5b98468d58f25b87b9e866afee0122e92d9fe722bf85076c60405160405180910390a2565b6000600154905090565b600080610b286107c4565b90506000670de0b6b3a76400008285610b4191906115a1565b610b4b9190611537565b90508092505050919050565b600060038281548110610b6d57610b6c6118e6565b5b9060005260206000200160009054906101000a900473ffffffffffffffffffffffffffffffffffffffff169050919050565b6000600380549050905090565b600060038054905082600081518110610bc857610bc76118e6565b5b6020026020010151610bda9190611828565b9050600060038281548110610bf257610bf16118e6565b5b9060005260206000200160009054906101000a900473ffffffffffffffffffffffffffffffffffffffff16905080600260006101000a81548173ffffffffffffffffffffffffffffffffffffffff021916908373ffffffffffffffffffffffffffffffffffffffff160217905550600067ffffffffffffffff811115610c7b57610c7a611915565b5b604051908082528060200260200182016040528015610ca95781602001602082028036833780820191505090505b5060039080519060200190610cbf929190610ddf565b506000600460006101000a81548160ff02191690836001811115610ce657610ce56118b7565b5b02179055504260018190555060008173ffffffffffffffffffffffffffffffffffffffff1647604051610d189061132a565b60006040518083038185875af1925050503d8060008114610d55576040519150601f19603f3d011682016040523d82523d6000602084013e610d5a565b606091505b5050905080610d95576040517f1c94012000000000000000000000000000000000000000000000000000000000815260040160405180910390fd5b8173ffffffffffffffffffffffffffffffffffffffff167f5b690ec4a06fe979403046eaeea5b3ce38524683c3001f662c8b5a829632f7df60405160405180910390a25050505050565b828054828255906000526020600020908101928215610e58579160200282015b82811115610e575782518260006101000a81548173ffffffffffffffffffffffffffffffffffffffff021916908373ffffffffffffffffffffffffffffffffffffffff16021790555091602001919060010190610dff565b5b509050610e659190610e69565b5090565b5b80821115610e82576000816000905550600101610e6a565b5090565b6000610e99610e94846114b3565b61148e565b90508083825260208201905082856020860282011115610ebc57610ebb61194e565b5b60005b85811015610eec5781610ed28882611014565b845260208401935060208301925050600181019050610ebf565b5050509392505050565b6000610f09610f04846114df565b61148e565b905082815260208101848484011115610f2557610f24611953565b5b610f308482856117b5565b509392505050565b600082601f830112610f4d57610f4c611949565b5b8135610f5d848260208601610e86565b91505092915050565b60008083601f840112610f7c57610f7b611949565b5b8235905067ffffffffffffffff811115610f9957610f98611944565b5b602083019150836001820283011115610fb557610fb461194e565b5b9250929050565b600082601f830112610fd157610fd0611949565b5b8135610fe1848260208601610ef6565b91505092915050565b600081359050610ff98161198a565b92915050565b60008151905061100e8161198a565b92915050565b600081359050611023816119a1565b92915050565b600081519050611038816119a1565b92915050565b60008151905061104d816119b8565b92915050565b6000806020838503121561106a5761106961195d565b5b600083013567ffffffffffffffff81111561108857611087611958565b5b61109485828601610f66565b92509250509250929050565b6000602082840312156110b6576110b561195d565b5b600082013567ffffffffffffffff8111156110d4576110d3611958565b5b6110e084828501610fbc565b91505092915050565b6000602082840312156110ff576110fe61195d565b5b600061110d84828501610fea565b91505092915050565b60006020828403121561112c5761112b61195d565b5b600061113a84828501611014565b91505092915050565b6000602082840312156111595761115861195d565b5b600061116784828501611029565b91505092915050565b600080604083850312156111875761118661195d565b5b600061119585828601611014565b925050602083013567ffffffffffffffff8111156111b6576111b5611958565b5b6111c285828601610f38565b9150509250929050565b600080600080600060a086880312156111e8576111e761195d565b5b60006111f68882890161103e565b955050602061120788828901610fff565b945050604061121888828901611029565b935050606061122988828901611029565b925050608061123a8882890161103e565b9150509295509295909350565b611250816116ec565b82525050565b61125f816116fe565b82525050565b61126e8161170a565b82525050565b600061127f82611510565b611289818561151b565b93506112998185602086016117c4565b6112a281611962565b840191505092915050565b6112b6816117a3565b82525050565b6112c581611727565b82525050565b60006112d860008361152c565b91506112e382611973565b600082019050919050565b6112f781611731565b82525050565b6113068161175f565b82525050565b61131581611769565b82525050565b61132481611779565b82525050565b6000611335826112cb565b9150819050919050565b60006020820190506113546000830184611247565b92915050565b600060408201905061136f6000830185611247565b61137c6020830184611247565b9392505050565b60006040820190506113986000830185611256565b81810360208301526113aa8184611274565b90509392505050565b600060a0820190506113c86000830188611265565b6113d5602083018761131b565b6113e260408301866112ee565b6113ef606083018561130c565b6113fc608083018461130c565b9695505050505050565b600060208201905061141b60008301846112ad565b92915050565b600060208201905061143660008301846112bc565b92915050565b600060208201905061145160008301846112fd565b92915050565b600060608201905061146c60008301866112fd565b61147960208301856112fd565b61148660408301846112fd565b949350505050565b60006114986114a9565b90506114a482826117f7565b919050565b6000604051905090565b600067ffffffffffffffff8211156114ce576114cd611915565b5b602082029050602081019050919050565b600067ffffffffffffffff8211156114fa576114f9611915565b5b61150382611962565b9050602081019050919050565b600081519050919050565b600082825260208201905092915050565b600081905092915050565b600061154282611727565b915061154d83611727565b92508261155d5761155c611888565b5b600160000383147f80000000000000000000000000000000000000000000000000000000000000008314161561159657611595611859565b5b828205905092915050565b60006115ac82611727565b91506115b783611727565b9250827f7fffffffffffffffffffffffffffffffffffffffffffffffffffffffffffffff04821160008413600084131616156115f6576115f5611859565b5b817f8000000000000000000000000000000000000000000000000000000000000000058312600084126000841316161561163357611632611859565b5b827f800000000000000000000000000000000000000000000000000000000000000005821260008413600084121616156116705761166f611859565b5b827f7fffffffffffffffffffffffffffffffffffffffffffffffffffffffffffffff05821260008412600084121616156116ad576116ac611859565b5b828202905092915050565b60006116c38261175f565b91506116ce8361175f565b9250828210156116e1576116e0611859565b5b828203905092915050565b60006116f78261173f565b9050919050565b60008115159050919050565b6000819050919050565b600081905061172282611976565b919050565b6000819050919050565b600061ffff82169050919050565b600073ffffffffffffffffffffffffffffffffffffffff82169050919050565b6000819050919050565b600063ffffffff82169050919050565b600067ffffffffffffffff82169050919050565b600069ffffffffffffffffffff82169050919050565b60006117ae82611714565b9050919050565b82818337600083830152505050565b60005b838110156117e25780820151818401526020810190506117c7565b838111156117f1576000848401525b50505050565b61180082611962565b810181811067ffffffffffffffff8211171561181f5761181e611915565b5b80604052505050565b60006118338261175f565b915061183e8361175f565b92508261184e5761184d611888565b5b828206905092915050565b7f4e487b7100000000000000000000000000000000000000000000000000000000600052601160045260246000fd5b7f4e487b7100000000000000000000000000000000000000000000000000000000600052601260045260246000fd5b7f4e487b7100000000000000000000000000000000000000000000000000000000600052602160045260246000fd5b7f4e487b7100000000000000000000000000000000000000000000000000000000600052603260045260246000fd5b7f4e487b7100000000000000000000000000000000000000000000000000000000600052604160045260246000fd5b600080fd5b600080fd5b600080fd5b600080fd5b600080fd5b600080fd5b6000601f19601f8301169050919050565b50565b60028110611987576119866118b7565b5b50565b61199381611727565b811461199e57600080fd5b50565b6119aa8161175f565b81146119b557600080fd5b50565b6119c18161178d565b81146119cc57600080fd5b5056fea2646970667358221220453cb8e204a7737dae8471892ce2278a10f6e8be76f792dd2248f0675437234764736f6c63430008070033",
  "devdoc": {
    "kind": "dev",
    "methods": {},
    "version": 1
  },
  "userdoc": {
    "kind": "user",
    "methods": {},
    "version": 1
  },
  "storageLayout": {
    "storage": [
      {
        "astId": 324,
        "contract": "contracts/Lottery.sol:Lottery",
        "label": "minimumUSD",
        "offset": 0,
        "slot": "0",
        "type": "t_uint256"
      },
      {
        "astId": 348,
        "contract": "contracts/Lottery.sol:Lottery",
        "label": "s_lastTimeStamp",
        "offset": 0,
        "slot": "1",
        "type": "t_uint256"
      },
      {
        "astId": 350,
        "contract": "contracts/Lottery.sol:Lottery",
        "label": "s_recentWinner",
        "offset": 0,
        "slot": "2",
        "type": "t_address"
      },
      {
        "astId": 353,
        "contract": "contracts/Lottery.sol:Lottery",
        "label": "s_players",
        "offset": 0,
        "slot": "3",
        "type": "t_array(t_address_payable)dyn_storage"
      },
      {
        "astId": 356,
        "contract": "contracts/Lottery.sol:Lottery",
        "label": "s_LotteryState",
        "offset": 0,
        "slot": "4",
        "type": "t_enum(LotteryState)327"
      }
    ],
    "types": {
      "t_address": {
        "encoding": "inplace",
        "label": "address",
        "numberOfBytes": "20"
      },
      "t_address_payable": {
        "encoding": "inplace",
        "label": "address payable",
        "numberOfBytes": "20"
      },
      "t_array(t_address_payable)dyn_storage": {
        "base": "t_address_payable",
        "encoding": "dynamic_array",
        "label": "address payable[]",
        "numberOfBytes": "32"
      },
      "t_enum(LotteryState)327": {
        "encoding": "inplace",
        "label": "enum Lottery.LotteryState",
        "numberOfBytes": "1"
      },
      "t_uint256": {
        "encoding": "inplace",
        "label": "uint256",
        "numberOfBytes": "32"
      }
    }
  }
}